{
  "contractName": "PerdidaDeConocimientoVO",
  "abi": [
    {
      "inputs": [],
      "name": "creador",
      "outputs": [
        {
          "internalType": "address",
          "name": "",
          "type": "address"
        }
      ],
      "stateMutability": "view",
      "type": "function"
    },
    {
      "inputs": [],
      "name": "getCodPrestadorServicioDeSalud",
      "outputs": [
        {
          "internalType": "address",
          "name": "",
          "type": "address"
        }
      ],
      "stateMutability": "view",
      "type": "function"
    },
    {
      "inputs": [],
      "name": "getFechaRegistro",
      "outputs": [
        {
          "internalType": "uint256",
          "name": "",
          "type": "uint256"
        }
      ],
      "stateMutability": "view",
      "type": "function"
    },
    {
      "inputs": [],
      "name": "getId",
      "outputs": [
        {
          "internalType": "uint256",
          "name": "",
          "type": "uint256"
        }
      ],
      "stateMutability": "view",
      "type": "function"
    },
    {
      "inputs": [],
      "name": "getRegistroMedico",
      "outputs": [
        {
          "components": [
            {
              "internalType": "uint256",
              "name": "id",
              "type": "uint256"
            },
            {
              "internalType": "address",
              "name": "codPrestadorServicioDeSalud",
              "type": "address"
            },
            {
              "internalType": "uint256",
              "name": "fechaRegistro",
              "type": "uint256"
            },
            {
              "internalType": "enum TipoRegistroMedico",
              "name": "tipoRegistroMedico",
              "type": "uint8"
            }
          ],
          "internalType": "struct RegistroMedico.RegistroMedicoStruct",
          "name": "",
          "type": "tuple"
        }
      ],
      "stateMutability": "view",
      "type": "function"
    },
    {
      "inputs": [],
      "name": "getTipoRegistroMedico",
      "outputs": [
        {
          "internalType": "enum TipoRegistroMedico",
          "name": "",
          "type": "uint8"
        }
      ],
      "stateMutability": "view",
      "type": "function"
    },
    {
      "inputs": [],
      "name": "selfDestruct",
      "outputs": [],
      "stateMutability": "nonpayable",
      "type": "function"
    },
    {
      "inputs": [
        {
          "internalType": "address",
          "name": "_codPrestadorServicioDeSalud",
          "type": "address"
        }
      ],
      "name": "setCodPrestadorServicioDeSalud",
      "outputs": [],
      "stateMutability": "nonpayable",
      "type": "function"
    },
    {
      "inputs": [
        {
          "internalType": "uint256",
          "name": "_fechaRegistro",
          "type": "uint256"
        }
      ],
      "name": "setFechaRegistro",
      "outputs": [],
      "stateMutability": "nonpayable",
      "type": "function"
    },
    {
      "inputs": [
        {
          "internalType": "uint256",
          "name": "_id",
          "type": "uint256"
        }
      ],
      "name": "setId",
      "outputs": [],
      "stateMutability": "nonpayable",
      "type": "function"
    },
    {
      "inputs": [
        {
          "components": [
            {
              "internalType": "uint256",
              "name": "id",
              "type": "uint256"
            },
            {
              "internalType": "address",
              "name": "codPrestadorServicioDeSalud",
              "type": "address"
            },
            {
              "internalType": "uint256",
              "name": "fechaRegistro",
              "type": "uint256"
            },
            {
              "internalType": "enum TipoRegistroMedico",
              "name": "tipoRegistroMedico",
              "type": "uint8"
            }
          ],
          "internalType": "struct RegistroMedico.RegistroMedicoStruct",
          "name": "registro",
          "type": "tuple"
        }
      ],
      "name": "setRegistroMedico",
      "outputs": [],
      "stateMutability": "nonpayable",
      "type": "function"
    },
    {
      "inputs": [
        {
          "internalType": "enum TipoRegistroMedico",
          "name": "_tipoRegistroMedico",
          "type": "uint8"
        }
      ],
      "name": "setTipoRegistroMedico",
      "outputs": [],
      "stateMutability": "nonpayable",
      "type": "function"
    },
    {
      "inputs": [],
      "name": "getDescripcion",
      "outputs": [
        {
          "internalType": "string",
          "name": "",
          "type": "string"
        }
      ],
      "stateMutability": "view",
      "type": "function"
    },
    {
      "inputs": [],
      "name": "getFechaAproximada",
      "outputs": [
        {
          "internalType": "uint256",
          "name": "",
          "type": "uint256"
        }
      ],
      "stateMutability": "view",
      "type": "function"
    },
    {
      "inputs": [],
      "name": "getPerdidaDeConocimientoStruct",
      "outputs": [
        {
          "components": [
            {
              "internalType": "string",
              "name": "descripcion",
              "type": "string"
            },
            {
              "internalType": "uint256",
              "name": "fechaAproximada",
              "type": "uint256"
            }
          ],
          "internalType": "struct PerdidaDeConocimientoVO.PerdidaDeConocimientoStruct",
          "name": "",
          "type": "tuple"
        }
      ],
      "stateMutability": "view",
      "type": "function"
    },
    {
      "inputs": [
        {
          "components": [
            {
              "internalType": "string",
              "name": "descripcion",
              "type": "string"
            },
            {
              "internalType": "uint256",
              "name": "fechaAproximada",
              "type": "uint256"
            }
          ],
          "internalType": "struct PerdidaDeConocimientoVO.PerdidaDeConocimientoStruct",
          "name": "_perdidaDeConocimientoStruct",
          "type": "tuple"
        }
      ],
      "name": "setPerdidaDeConocimientoStruct",
      "outputs": [],
      "stateMutability": "nonpayable",
      "type": "function"
    },
    {
      "inputs": [
        {
          "internalType": "string",
          "name": "_descripcion",
          "type": "string"
        }
      ],
      "name": "setDescripcion",
      "outputs": [],
      "stateMutability": "nonpayable",
      "type": "function"
    },
    {
      "inputs": [
        {
          "internalType": "uint256",
          "name": "_fechaAproximada",
          "type": "uint256"
        }
      ],
      "name": "setFechaAproximada",
      "outputs": [],
      "stateMutability": "nonpayable",
      "type": "function"
    }
  ],
  "bytecode": "0x608060405234801561001057600080fd5b506004805460ff1916600c179055610b168061002d6000396000f3fe608060405234801561001057600080fd5b50600436106101365760003560e01c806392ebdcd2116100b2578063ca3c5a1311610081578063d45795cb11610066578063d45795cb14610285578063f9a9ff9d14610298578063f9c0cba7146102ad57600080fd5b8063ca3c5a131461025f578063d0e0ba951461027257600080fd5b806392ebdcd21461020857806393be08ef146102335780639cb8a26a14610244578063a204b7c91461024c57600080fd5b806338fbde49116101095780634ec4b32d116100ee5780634ec4b32d146101bb5780635d1ca631146101c3578063803a56ec146101cb57600080fd5b806338fbde491461019357806344517a9a146101a857600080fd5b80630bcacc1b1461013b5780631b59abb91461015957806327f074cf1461016b578063302dd77b14610180575b600080fd5b6101436102c0565b6040516101509190610656565b60405180910390f35b6003545b604051908152602001610150565b61017e610179366004610698565b600355565b005b61017e61018e366004610754565b610335565b61019b610359565b604051610150919061082a565b60045460ff16604051610150919061085c565b60065461015d565b60015461015d565b61017e6101d936600461088c565b6002805473ffffffffffffffffffffffffffffffffffffffff19166001600160a01b0392909216919091179055565b60005461021b906001600160a01b031681565b6040516001600160a01b039091168152602001610150565b6002546001600160a01b031661021b565b61017e61041c565b61017e61025a3660046108bd565b6104ee565b61017e61026d36600461092c565b61055a565b61017e610280366004610698565b600155565b61017e610293366004610947565b610579565b6102a0610589565b6040516101509190610984565b61017e6102bb366004610698565b600655565b6102e86040805160808101825260008082526020820181905291810182905290606082015290565b6040805160808101825260015481526002546001600160a01b0316602082015260035491810191909152600454606082019060ff16601281111561032e5761032e61061e565b9052919050565b8051819060059081906103489082610a20565b506020820151816001015590505050565b604080518082019091526060815260006020820152600560405180604001604052908160008201805461038b90610997565b80601f01602080910402602001604051908101604052809291908181526020018280546103b790610997565b80156104045780601f106103d957610100808354040283529160200191610404565b820191906000526020600020905b8154815290600101906020018083116103e757829003601f168201915b50505050508152602001600182015481525050905090565b6000546001600160a01b031633146104e0576040517f08c379a000000000000000000000000000000000000000000000000000000000815260206004820152604160248201527f457374612066756e63696f6e20736f6c6f2070756564652073657220656a656360448201527f757461646120706f7220656c2063726561646f722064656c20636f6e7472617460648201527f6f00000000000000000000000000000000000000000000000000000000000000608482015260a40160405180910390fd5b6000546001600160a01b0316ff5b8051600190815560208201516002805473ffffffffffffffffffffffffffffffffffffffff19166001600160a01b0390921691909117905560408201516003556060820151600480549192909160ff1916908360128111156105525761055261061e565b021790555050565b6004805482919060ff191660018360128111156105525761055261061e565b60056105858282610a20565b5050565b60606005600001805461059b90610997565b80601f01602080910402602001604051908101604052809291908181526020018280546105c790610997565b80156106145780601f106105e957610100808354040283529160200191610614565b820191906000526020600020905b8154815290600101906020018083116105f757829003601f168201915b5050505050905090565b634e487b7160e01b600052602160045260246000fd5b6013811061065257634e487b7160e01b600052602160045260246000fd5b9052565b6000608082019050825182526001600160a01b0360208401511660208301526040830151604083015260608301516106916060840182610634565b5092915050565b6000602082840312156106aa57600080fd5b5035919050565b634e487b7160e01b600052604160045260246000fd5b600082601f8301126106d857600080fd5b813567ffffffffffffffff808211156106f3576106f36106b1565b604051601f8301601f19908116603f0116810190828211818310171561071b5761071b6106b1565b8160405283815286602085880101111561073457600080fd5b836020870160208301376000602085830101528094505050505092915050565b60006020828403121561076657600080fd5b813567ffffffffffffffff8082111561077e57600080fd5b908301906040828603121561079257600080fd5b6040516040810181811083821117156107ad576107ad6106b1565b6040528235828111156107bf57600080fd5b6107cb878286016106c7565b8252506020830135602082015280935050505092915050565b6000815180845260005b8181101561080a576020818501810151868301820152016107ee565b506000602082860101526020601f19601f83011685010191505092915050565b60208152600082516040602084015261084660608401826107e4565b9050602084015160408401528091505092915050565b6020810161086a8284610634565b92915050565b80356001600160a01b038116811461088757600080fd5b919050565b60006020828403121561089e57600080fd5b6108a782610870565b9392505050565b80356013811061088757600080fd5b6000608082840312156108cf57600080fd5b6040516080810181811067ffffffffffffffff821117156108f2576108f26106b1565b6040528235815261090560208401610870565b602082015260408301356040820152610920606084016108ae565b60608201529392505050565b60006020828403121561093e57600080fd5b6108a7826108ae565b60006020828403121561095957600080fd5b813567ffffffffffffffff81111561097057600080fd5b61097c848285016106c7565b949350505050565b6020815260006108a760208301846107e4565b600181811c908216806109ab57607f821691505b6020821081036109cb57634e487b7160e01b600052602260045260246000fd5b50919050565b601f821115610a1b57600081815260208120601f850160051c810160208610156109f85750805b601f850160051c820191505b81811015610a1757828155600101610a04565b5050505b505050565b815167ffffffffffffffff811115610a3a57610a3a6106b1565b610a4e81610a488454610997565b846109d1565b602080601f831160018114610a835760008415610a6b5750858301515b600019600386901b1c1916600185901b178555610a17565b600085815260208120601f198616915b82811015610ab257888601518255948401946001909101908401610a93565b5085821015610ad05787850151600019600388901b60f8161c191681555b5050505050600190811b0190555056fea2646970667358221220ca9176b9e7a6bb076e16927c4268ff835da8d1bbb4091cdb4a56f7dde56bd57c64736f6c63430008110033",
  "immutableReferences": {},
  "source": "// SPDX-License-Identifier: MIT\npragma solidity ^0.8.17;\n\nimport \"./RegistroMedico.sol\";\n\ncontract PerdidaDeConocimientoVO is RegistroMedico (TipoRegistroMedico.PERDIDADECONOCIMIENTOVO) {\n    struct PerdidaDeConocimientoStruct {\n        string descripcion;\n        uint256 fechaAproximada;\n    }\n\n    PerdidaDeConocimientoStruct private perdidaDeConocimientoStruct;\n\n    function getDescripcion() public view returns (string memory) {\n        return perdidaDeConocimientoStruct.descripcion;\n    }\n\n    function getFechaAproximada() public view returns (uint256) {\n        return perdidaDeConocimientoStruct.fechaAproximada;\n    }\n\n    function getPerdidaDeConocimientoStruct()\n        public\n        view\n        returns (PerdidaDeConocimientoStruct memory)\n    {\n        return perdidaDeConocimientoStruct;\n    }\n\n    function setPerdidaDeConocimientoStruct(\n        PerdidaDeConocimientoStruct memory _perdidaDeConocimientoStruct\n    ) public {\n        perdidaDeConocimientoStruct = _perdidaDeConocimientoStruct;\n    }\n\n    function setDescripcion(string memory _descripcion) public {\n        perdidaDeConocimientoStruct.descripcion = _descripcion;\n    }\n\n    function setFechaAproximada(uint256 _fechaAproximada) public {\n        perdidaDeConocimientoStruct.fechaAproximada = _fechaAproximada;\n    }\n}\n",
  "sourcePath": "/home/felipe/Documentos/Blockchain/codigo/HCE-full/back-hce/contracts/models/historiaClinica/PerdidaDeConocimientoVO.sol",
  "compiler": {
    "name": "solc",
    "version": "0.8.17+commit.8df45f5f.Emscripten.clang"
  },
  "schemaVersion": "3.4.8",
  "updatedAt": "2023-04-29T22:01:13.612Z",
  "devdoc": {
    "kind": "dev",
    "methods": {},
    "version": 1
  },
  "userdoc": {
    "kind": "user",
    "methods": {},
    "version": 1
  }
}